{
  "contractName": "Custom2",
  "abi": [
    {
      "inputs": [],
      "name": "owner",
      "outputs": [
        {
          "internalType": "address",
          "name": "",
          "type": "address"
        }
      ],
      "stateMutability": "view",
      "type": "function"
    },
    {
      "inputs": [
        {
          "internalType": "address",
          "name": "_coustmer",
          "type": "address"
        }
      ],
      "name": "approveCandidate",
      "outputs": [],
      "stateMutability": "nonpayable",
      "type": "function"
    }
  ],
  "bytecode": "0x6080604052336000806101000a81548173ffffffffffffffffffffffffffffffffffffffff021916908373ffffffffffffffffffffffffffffffffffffffff16021790555034801561005057600080fd5b50610308806100606000396000f3fe608060405234801561001057600080fd5b50600436106100365760003560e01c806307be7e911461003b5780638da5cb5b14610057575b600080fd5b610055600480360381019061005091906101fe565b610075565b005b61005f610177565b60405161006c919061023a565b60405180910390f35b60008054906101000a900473ffffffffffffffffffffffffffffffffffffffff1673ffffffffffffffffffffffffffffffffffffffff163373ffffffffffffffffffffffffffffffffffffffff1614610103576040517f08c379a00000000000000000000000000000000000000000000000000000000081526004016100fa906102b2565b60405180910390fd5b60008190508073ffffffffffffffffffffffffffffffffffffffff16636453269d836040518263ffffffff1660e01b8152600401610141919061023a565b600060405180830381600087803b15801561015b57600080fd5b505af115801561016f573d6000803e3d6000fd5b505050505050565b60008054906101000a900473ffffffffffffffffffffffffffffffffffffffff1681565b600080fd5b600073ffffffffffffffffffffffffffffffffffffffff82169050919050565b60006101cb826101a0565b9050919050565b6101db816101c0565b81146101e657600080fd5b50565b6000813590506101f8816101d2565b92915050565b6000602082840312156102145761021361019b565b5b6000610222848285016101e9565b91505092915050565b610234816101c0565b82525050565b600060208201905061024f600083018461022b565b92915050565b600082825260208201905092915050565b7f4e6f2061646d696e000000000000000000000000000000000000000000000000600082015250565b600061029c600883610255565b91506102a782610266565b602082019050919050565b600060208201905081810360008301526102cb8161028f565b905091905056fea26469706673582212206f0b8e22ef848362b183b4357f26065a45a87a1cb2e85ed26b66a88fe128fbf964736f6c63430008100033",
  "immutableReferences": {},
  "source": "// SPDX-License-Identifier: GPL-3.0\r\n\r\npragma solidity ^0.8.16;\r\n\r\ninterface Logistics {\r\n    function ApproveCustom1(address _orderaddress) external;\r\n    function ApproveCustom2(address _orderaddress) external;\r\n}\r\n\r\ncontract Custom1{\r\n\r\n    address public owner = msg.sender;\r\n\r\n    modifier adminOnly() {\r\n        require(msg.sender == owner,\"No admin\");\r\n        _;\r\n    }\r\n    \r\n\r\n    function approveCandidate(address _coustmer)  public adminOnly{\r\n        Logistics L = Logistics(_coustmer);\r\n        L.ApproveCustom1(_coustmer);\r\n    }\r\n\r\n}\r\n\r\ncontract Custom2{\r\n\r\n    address public owner = msg.sender;\r\n\r\n    modifier adminOnly() {\r\n        require(msg.sender == owner,\"No admin\");\r\n        _;\r\n    }\r\n\r\n    function approveCandidate(address _coustmer)  public adminOnly{\r\n        Logistics L = Logistics(_coustmer);\r\n        L.ApproveCustom2(_coustmer);\r\n    }\r\n\r\n}",
  "sourcePath": "C:\\Users\\sakha\\OneDrive\\Desktop\\Project - Copy\\contracts\\Customs.sol",
  "compiler": {
    "name": "solc",
    "version": "0.8.16+commit.07a7930e.Emscripten.clang"
  },
  "schemaVersion": "3.4.9",
  "updatedAt": "2022-10-21T13:02:17.997Z",
  "devdoc": {
    "kind": "dev",
    "methods": {},
    "version": 1
  },
  "userdoc": {
    "kind": "user",
    "methods": {},
    "version": 1
  }
}