{
  "contractName": "Logistics",
  "abi": [
    {
      "inputs": [
        {
          "internalType": "address",
          "name": "_saller",
          "type": "address"
        }
      ],
      "stateMutability": "nonpayable",
      "type": "constructor"
    },
    {
      "anonymous": false,
      "inputs": [
        {
          "indexed": false,
          "internalType": "address",
          "name": "coustmer",
          "type": "address"
        },
        {
          "components": [
            {
              "internalType": "bool",
              "name": "Approve",
              "type": "bool"
            },
            {
              "internalType": "string",
              "name": "orderStatus",
              "type": "string"
            },
            {
              "internalType": "string",
              "name": "Customs1",
              "type": "string"
            },
            {
              "internalType": "string",
              "name": "Customs2",
              "type": "string"
            },
            {
              "internalType": "string",
              "name": "Delivery",
              "type": "string"
            }
          ],
          "indexed": false,
          "internalType": "struct Logistics.Packageitem",
          "name": "Data",
          "type": "tuple"
        }
      ],
      "name": "Register",
      "type": "event"
    },
    {
      "inputs": [],
      "name": "Custom1",
      "outputs": [
        {
          "internalType": "address",
          "name": "",
          "type": "address"
        }
      ],
      "stateMutability": "view",
      "type": "function"
    },
    {
      "inputs": [],
      "name": "Custom2",
      "outputs": [
        {
          "internalType": "address",
          "name": "",
          "type": "address"
        }
      ],
      "stateMutability": "view",
      "type": "function"
    },
    {
      "inputs": [],
      "name": "Delivery",
      "outputs": [
        {
          "internalType": "address",
          "name": "",
          "type": "address"
        }
      ],
      "stateMutability": "view",
      "type": "function"
    },
    {
      "inputs": [],
      "name": "Saller",
      "outputs": [
        {
          "internalType": "address",
          "name": "",
          "type": "address"
        }
      ],
      "stateMutability": "view",
      "type": "function"
    },
    {
      "inputs": [
        {
          "internalType": "address",
          "name": "",
          "type": "address"
        }
      ],
      "name": "Track",
      "outputs": [
        {
          "internalType": "bool",
          "name": "Approve",
          "type": "bool"
        },
        {
          "internalType": "string",
          "name": "orderStatus",
          "type": "string"
        },
        {
          "internalType": "string",
          "name": "Customs1",
          "type": "string"
        },
        {
          "internalType": "string",
          "name": "Customs2",
          "type": "string"
        },
        {
          "internalType": "string",
          "name": "Delivery",
          "type": "string"
        }
      ],
      "stateMutability": "view",
      "type": "function"
    },
    {
      "inputs": [],
      "name": "coustmer",
      "outputs": [
        {
          "internalType": "address",
          "name": "",
          "type": "address"
        }
      ],
      "stateMutability": "view",
      "type": "function"
    },
    {
      "inputs": [
        {
          "internalType": "address",
          "name": "_coustomer",
          "type": "address"
        }
      ],
      "name": "SetCoustomer",
      "outputs": [],
      "stateMutability": "nonpayable",
      "type": "function"
    },
    {
      "inputs": [
        {
          "internalType": "address",
          "name": "_custom1",
          "type": "address"
        },
        {
          "internalType": "address",
          "name": "_custom2",
          "type": "address"
        }
      ],
      "name": "setCustoms",
      "outputs": [],
      "stateMutability": "nonpayable",
      "type": "function"
    },
    {
      "inputs": [
        {
          "internalType": "address",
          "name": "_delivery",
          "type": "address"
        }
      ],
      "name": "setDeliveryHub",
      "outputs": [],
      "stateMutability": "nonpayable",
      "type": "function"
    },
    {
      "inputs": [
        {
          "internalType": "address",
          "name": "_orderaddress",
          "type": "address"
        }
      ],
      "name": "ConfirmOrder",
      "outputs": [],
      "stateMutability": "nonpayable",
      "type": "function"
    },
    {
      "inputs": [
        {
          "internalType": "address",
          "name": "_orderaddress",
          "type": "address"
        }
      ],
      "name": "ApproveCustom1",
      "outputs": [],
      "stateMutability": "nonpayable",
      "type": "function"
    },
    {
      "inputs": [
        {
          "internalType": "address",
          "name": "_orderaddress",
          "type": "address"
        }
      ],
      "name": "ApproveCustom2",
      "outputs": [],
      "stateMutability": "nonpayable",
      "type": "function"
    },
    {
      "inputs": [
        {
          "internalType": "address",
          "name": "_orderaddress",
          "type": "address"
        }
      ],
      "name": "DeliveryHub",
      "outputs": [],
      "stateMutability": "nonpayable",
      "type": "function"
    },
    {
      "inputs": [
        {
          "internalType": "address",
          "name": "_orderaddress",
          "type": "address"
        }
      ],
      "name": "DeliveryDone",
      "outputs": [],
      "stateMutability": "nonpayable",
      "type": "function"
    }
  ],
  "bytecode": "0x60806040523480156200001157600080fd5b506040516200177b3803806200177b8339818101604052810190620000379190620000e8565b806000806101000a81548173ffffffffffffffffffffffffffffffffffffffff021916908373ffffffffffffffffffffffffffffffffffffffff160217905550506200011a565b600080fd5b600073ffffffffffffffffffffffffffffffffffffffff82169050919050565b6000620000b08262000083565b9050919050565b620000c281620000a3565b8114620000ce57600080fd5b50565b600081519050620000e281620000b7565b92915050565b6000602082840312156200010157620001006200007e565b5b60006200011184828501620000d1565b91505092915050565b611651806200012a6000396000f3fe608060405234801561001057600080fd5b50600436106100ea5760003560e01c80639258bdaf1161008c578063ce61344511610066578063ce61344514610225578063dbd4487c14610241578063e23449af1461025d578063f7aad59a1461027b576100ea565b80639258bdaf146101d15780639a2165f7146101ed578063b019c0bb14610209576100ea565b8063545ee64d116100c8578063545ee64d1461015d5780635ef6ad57146101795780636453269d1461019757806378f1650f146101b3576100ea565b806320458182146100ef57806344a39c251461010d57806350303c0d14610141575b600080fd5b6100f7610299565b6040516101049190610f77565b60405180910390f35b61012760048036038101906101229190610fc3565b6102bf565b60405161013895949392919061109b565b60405180910390f35b61015b60048036038101906101569190610fc3565b610522565b005b61017760048036038101906101729190610fc3565b610699565b005b61018161076b565b60405161018e9190610f77565b60405180910390f35b6101b160048036038101906101ac9190610fc3565b610791565b005b6101bb610908565b6040516101c89190610f77565b60405180910390f35b6101eb60048036038101906101e69190610fc3565b61092c565b005b61020760048036038101906102029190610fc3565b610afc565b005b610223600480360381019061021e919061110a565b610c00565b005b61023f600480360381019061023a9190610fc3565b610d14565b005b61025b60048036038101906102569190610fc3565b610de6565b005b610265610eea565b6040516102729190610f77565b60405180910390f35b610283610f10565b6040516102909190610f77565b60405180910390f35b600260009054906101000a900473ffffffffffffffffffffffffffffffffffffffff1681565b60056020528060005260406000206000915090508060000160009054906101000a900460ff16908060010180546102f590611179565b80601f016020809104026020016040519081016040528092919081815260200182805461032190611179565b801561036e5780601f106103435761010080835404028352916020019161036e565b820191906000526020600020905b81548152906001019060200180831161035157829003601f168201915b50505050509080600201805461038390611179565b80601f01602080910402602001604051908101604052809291908181526020018280546103af90611179565b80156103fc5780601f106103d1576101008083540402835291602001916103fc565b820191906000526020600020905b8154815290600101906020018083116103df57829003601f168201915b50505050509080600301805461041190611179565b80601f016020809104026020016040519081016040528092919081815260200182805461043d90611179565b801561048a5780601f1061045f5761010080835404028352916020019161048a565b820191906000526020600020905b81548152906001019060200180831161046d57829003601f168201915b50505050509080600401805461049f90611179565b80601f01602080910402602001604051908101604052809291908181526020018280546104cb90611179565b80156105185780601f106104ed57610100808354040283529160200191610518565b820191906000526020600020905b8154815290600101906020018083116104fb57829003601f168201915b5050505050905085565b600260009054906101000a900473ffffffffffffffffffffffffffffffffffffffff1673ffffffffffffffffffffffffffffffffffffffff163373ffffffffffffffffffffffffffffffffffffffff16146105b2576040517f08c379a00000000000000000000000000000000000000000000000000000000081526004016105a9906111f6565b60405180910390fd5b600160009054906101000a900473ffffffffffffffffffffffffffffffffffffffff1673ffffffffffffffffffffffffffffffffffffffff168173ffffffffffffffffffffffffffffffffffffffff161461060c57600080fd5b6040518060600160405280602881526020016115ce6028913960056000600160009054906101000a900473ffffffffffffffffffffffffffffffffffffffff1673ffffffffffffffffffffffffffffffffffffffff1673ffffffffffffffffffffffffffffffffffffffff168152602001908152602001600020600201908161069591906113fb565b5050565b3373ffffffffffffffffffffffffffffffffffffffff1660008054906101000a900473ffffffffffffffffffffffffffffffffffffffff1673ffffffffffffffffffffffffffffffffffffffff1614610727576040517f08c379a000000000000000000000000000000000000000000000000000000000815260040161071e90611519565b60405180910390fd5b80600160006101000a81548173ffffffffffffffffffffffffffffffffffffffff021916908373ffffffffffffffffffffffffffffffffffffffff16021790555050565b600460009054906101000a900473ffffffffffffffffffffffffffffffffffffffff1681565b600360009054906101000a900473ffffffffffffffffffffffffffffffffffffffff1673ffffffffffffffffffffffffffffffffffffffff163373ffffffffffffffffffffffffffffffffffffffff1614610821576040517f08c379a000000000000000000000000000000000000000000000000000000000815260040161081890611585565b60405180910390fd5b600160009054906101000a900473ffffffffffffffffffffffffffffffffffffffff1673ffffffffffffffffffffffffffffffffffffffff168173ffffffffffffffffffffffffffffffffffffffff161461087b57600080fd5b6040518060600160405280602881526020016115a66028913960056000600160009054906101000a900473ffffffffffffffffffffffffffffffffffffffff1673ffffffffffffffffffffffffffffffffffffffff1673ffffffffffffffffffffffffffffffffffffffff168152602001908152602001600020600301908161090491906113fb565b5050565b60008054906101000a900473ffffffffffffffffffffffffffffffffffffffff1681565b3373ffffffffffffffffffffffffffffffffffffffff1660008054906101000a900473ffffffffffffffffffffffffffffffffffffffff1673ffffffffffffffffffffffffffffffffffffffff16146109ba576040517f08c379a00000000000000000000000000000000000000000000000000000000081526004016109b190611519565b60405180910390fd5b6001600560008373ffffffffffffffffffffffffffffffffffffffff1673ffffffffffffffffffffffffffffffffffffffff16815260200190815260200160002060000160006101000a81548160ff021916908315150217905550600160009054906101000a900473ffffffffffffffffffffffffffffffffffffffff1673ffffffffffffffffffffffffffffffffffffffff168173ffffffffffffffffffffffffffffffffffffffff1614610a6f57600080fd5b6040518060600160405280602681526020016115f66026913960056000600160009054906101000a900473ffffffffffffffffffffffffffffffffffffffff1673ffffffffffffffffffffffffffffffffffffffff1673ffffffffffffffffffffffffffffffffffffffff1681526020019081526020016000206001019081610af891906113fb565b5050565b600160009054906101000a900473ffffffffffffffffffffffffffffffffffffffff1673ffffffffffffffffffffffffffffffffffffffff168173ffffffffffffffffffffffffffffffffffffffff1614610b5657600080fd5b6040518060400160405280601181526020017f5061636b6167652044656c69766572656400000000000000000000000000000081525060056000600160009054906101000a900473ffffffffffffffffffffffffffffffffffffffff1673ffffffffffffffffffffffffffffffffffffffff1673ffffffffffffffffffffffffffffffffffffffff1681526020019081526020016000206004019081610bfc91906113fb565b5050565b3373ffffffffffffffffffffffffffffffffffffffff1660008054906101000a900473ffffffffffffffffffffffffffffffffffffffff1673ffffffffffffffffffffffffffffffffffffffff1614610c8e576040517f08c379a0000000000000000000000000000000000000000000000000000000008152600401610c8590611519565b60405180910390fd5b81600260006101000a81548173ffffffffffffffffffffffffffffffffffffffff021916908373ffffffffffffffffffffffffffffffffffffffff16021790555080600360006101000a81548173ffffffffffffffffffffffffffffffffffffffff021916908373ffffffffffffffffffffffffffffffffffffffff1602179055505050565b3373ffffffffffffffffffffffffffffffffffffffff1660008054906101000a900473ffffffffffffffffffffffffffffffffffffffff1673ffffffffffffffffffffffffffffffffffffffff1614610da2576040517f08c379a0000000000000000000000000000000000000000000000000000000008152600401610d9990611519565b60405180910390fd5b80600460006101000a81548173ffffffffffffffffffffffffffffffffffffffff021916908373ffffffffffffffffffffffffffffffffffffffff16021790555050565b600160009054906101000a900473ffffffffffffffffffffffffffffffffffffffff1673ffffffffffffffffffffffffffffffffffffffff168173ffffffffffffffffffffffffffffffffffffffff1614610e4057600080fd5b6040518060400160405280601e81526020017f52656369766564205061636b61676520696e2044656c6976657279487562000081525060056000600160009054906101000a900473ffffffffffffffffffffffffffffffffffffffff1673ffffffffffffffffffffffffffffffffffffffff1673ffffffffffffffffffffffffffffffffffffffff1681526020019081526020016000206004019081610ee691906113fb565b5050565b600360009054906101000a900473ffffffffffffffffffffffffffffffffffffffff1681565b600160009054906101000a900473ffffffffffffffffffffffffffffffffffffffff1681565b600073ffffffffffffffffffffffffffffffffffffffff82169050919050565b6000610f6182610f36565b9050919050565b610f7181610f56565b82525050565b6000602082019050610f8c6000830184610f68565b92915050565b600080fd5b610fa081610f56565b8114610fab57600080fd5b50565b600081359050610fbd81610f97565b92915050565b600060208284031215610fd957610fd8610f92565b5b6000610fe784828501610fae565b91505092915050565b60008115159050919050565b61100581610ff0565b82525050565b600081519050919050565b600082825260208201905092915050565b60005b8381101561104557808201518184015260208101905061102a565b60008484015250505050565b6000601f19601f8301169050919050565b600061106d8261100b565b6110778185611016565b9350611087818560208601611027565b61109081611051565b840191505092915050565b600060a0820190506110b06000830188610ffc565b81810360208301526110c28187611062565b905081810360408301526110d68186611062565b905081810360608301526110ea8185611062565b905081810360808301526110fe8184611062565b90509695505050505050565b6000806040838503121561112157611120610f92565b5b600061112f85828601610fae565b925050602061114085828601610fae565b9150509250929050565b7f4e487b7100000000000000000000000000000000000000000000000000000000600052602260045260246000fd5b6000600282049050600182168061119157607f821691505b6020821081036111a4576111a361114a565b5b50919050565b7f437573746f6d31206f6e6c79206f7065726174696f6e00000000000000000000600082015250565b60006111e0601683611016565b91506111eb826111aa565b602082019050919050565b6000602082019050818103600083015261120f816111d3565b9050919050565b7f4e487b7100000000000000000000000000000000000000000000000000000000600052604160045260246000fd5b60008190508160005260206000209050919050565b60006020601f8301049050919050565b600082821b905092915050565b6000600883026112a77fffffffffffffffffffffffffffffffffffffffffffffffffffffffffffffffff8261126a565b6112b1868361126a565b95508019841693508086168417925050509392505050565b6000819050919050565b6000819050919050565b60006112f86112f36112ee846112c9565b6112d3565b6112c9565b9050919050565b6000819050919050565b611312836112dd565b61132661131e826112ff565b848454611277565b825550505050565b600090565b61133b61132e565b611346818484611309565b505050565b5b8181101561136a5761135f600082611333565b60018101905061134c565b5050565b601f8211156113af5761138081611245565b6113898461125a565b81016020851015611398578190505b6113ac6113a48561125a565b83018261134b565b50505b505050565b600082821c905092915050565b60006113d2600019846008026113b4565b1980831691505092915050565b60006113eb83836113c1565b9150826002028217905092915050565b6114048261100b565b67ffffffffffffffff81111561141d5761141c611216565b5b6114278254611179565b61143282828561136e565b600060209050601f8311600181146114655760008415611453578287015190505b61145d85826113df565b8655506114c5565b601f19841661147386611245565b60005b8281101561149b57848901518255600182019150602085019450602081019050611476565b868310156114b857848901516114b4601f8916826113c1565b8355505b6001600288020188555050505b505050505050565b7f596f7520617265204e4f7420612053616c6c6572000000000000000000000000600082015250565b6000611503601483611016565b915061150e826114cd565b602082019050919050565b60006020820190508181036000830152611532816114f6565b9050919050565b7f437573746f6d32206f6e6c79206f7065726174696f6e00000000000000000000600082015250565b600061156f601683611016565b915061157a82611539565b602082019050919050565b6000602082019050818103600083015261159e81611562565b905091905056fe436c65617220627920437573746f6d3220616e6420417070726f76656420666f7220496d706f7274436c65617220627920437573746f6d3120616e6420417070726f76656420666f72204578706f7274636f6e6669726d20616e642053656e6420466f7220437573746f6d3120436c656172616e6365a26469706673582212209e297431fa7a6733afaa345d207220a974a266c5b31e9b4aeecd21d927e6196964736f6c63430008100033",
  "immutableReferences": {},
  "source": "// SPDX-License-Identifier: GPL-3.0\r\n\r\npragma solidity >=0.7.0 <0.9.0;\r\n\r\n\r\ncontract Logistics{\r\n\r\n    address public Saller;\r\n    address public coustmer;\r\n    address public Custom1;\r\n    address public Custom2;\r\n    address public Delivery;\r\n\r\n    struct Packageitem{\r\n        bool Approve;\r\n        string orderStatus;\r\n\r\n        string Customs1;\r\n        string Customs2;\r\n        \r\n        string Delivery;\r\n    }\r\n\r\n    constructor (address _saller){\r\n        Saller = _saller;\r\n    }\r\n\r\n\r\n    mapping (address => Packageitem) public Track;\r\n    event Register(address coustmer, Packageitem Data);\r\n\r\n    modifier OnlySaller{\r\n        require (Saller == msg.sender, \"You are NOt a Saller\");\r\n        _;\r\n    }\r\n\r\n    function SetCoustomer(address _coustomer) public OnlySaller {\r\n        coustmer = _coustomer;\r\n    }\r\n\r\n    function setCustoms(address _custom1,address _custom2) public OnlySaller {\r\n        Custom1 = _custom1;\r\n        Custom2 = _custom2;\r\n    }\r\n\r\n\r\n    modifier Custom1Only{\r\n        require (msg.sender == address(Custom1),\"Custom1 only operation\");\r\n        _;\r\n    }\r\n\r\n    modifier Custom2Only{\r\n        require (msg.sender == address(Custom2),\"Custom2 only operation\");\r\n        _;\r\n    }\r\n    \r\n\r\n    function setDeliveryHub(address _delivery) public OnlySaller {\r\n        Delivery = _delivery;\r\n    }\r\n\r\n\r\n    function Tracking() private { \r\n        Track[coustmer] = Packageitem(\r\n            false,\"Ordered Not Confirm\",\r\n            \"Panding\",\"Panding\",\"Intransit\"\r\n            );\r\n\r\n        emit Register(msg.sender, Track[coustmer]);\r\n    }\r\n\r\n\r\n    function ConfirmOrder(address _orderaddress) public OnlySaller{\r\n        Track[_orderaddress].Approve = true;\r\n        require (_orderaddress == coustmer);\r\n        Track[coustmer].orderStatus = \"confirm and Send For Custom1 Clearance\";\r\n\r\n    }\r\n\r\n    function ApproveCustom1(address _orderaddress) external Custom1Only{\r\n        require (_orderaddress == coustmer);\r\n        Track[coustmer].Customs1 = \"Clear by Custom1 and Approved for Export\";\r\n    }\r\n\r\n\r\n    function ApproveCustom2(address _orderaddress) external Custom2Only{\r\n        require (_orderaddress == coustmer);\r\n        Track[coustmer].Customs2 = \"Clear by Custom2 and Approved for Import\";\r\n    }\r\n\r\n    function DeliveryHub(address _orderaddress) external {\r\n        require (_orderaddress == coustmer);\r\n        Track[coustmer].Delivery = \"Recived Package in DeliveryHub\";\r\n    }\r\n\r\n    function DeliveryDone(address _orderaddress) external {\r\n        require (_orderaddress == coustmer);\r\n        Track[coustmer].Delivery = \"Package Delivered\";\r\n    }\r\n\r\n}\r\n",
  "sourcePath": "C:\\Users\\sakha\\OneDrive\\Desktop\\Project - Copy\\contracts\\Logistics.sol",
  "compiler": {
    "name": "solc",
    "version": "0.8.16+commit.07a7930e.Emscripten.clang"
  },
  "schemaVersion": "3.4.9",
  "updatedAt": "2022-10-21T13:02:18.005Z",
  "devdoc": {
    "kind": "dev",
    "methods": {},
    "version": 1
  },
  "userdoc": {
    "kind": "user",
    "methods": {},
    "version": 1
  }
}